:020000040800F2
:10100000F80B0020D9100008296100082D5C0008A9
:1010100000000000000000000000000000000000D0
:10102000000000000000000000000000717A0008CD
:10103000000000000000000011630008757C00083B
:10104000EB100008EB100008EB100008EB10000894
:10105000EB100008EB100008EB100008EB10000884
:10106000EB100008EB10000855340008EB100008E6
:10107000EB100008EB100008EB100008EB10000864
:10108000F5890008759B0008EB100008EB100008BC
:10109000AD5D0008D52D0008EB100008EB1000082E
:1010A000EB100008EB100008EB100008EB10000834
:1010B000EB10000865600008199B0008EB100008A1
:1010C0000448854600F0D6FC00480047C1C400082B
:1010D000C046C046F80B002004488047044800473B
:1010E000FEE7FEE7FEE7FEE7FEE7FEE765890008AC
:1010F000C110000830B50B46014600202022012413
:1011000009E00D46D5409D4205D31D469540491B3B
:101110002546954040191546521E002DF1DC30BD84
:1011200070B500242546002801DA01244042002938
:1011300001DA01254942FFF7DDFFAC4200D0404211
:10114000002C00D0494270BDF0B51FB40646002007
:1011500082B005464024019100901BE0019922468F
:101160000F46304600F0ACFB049A059B801A99416B
:1011700010D310461946224600F092FB361A8F41D2
:101180000197224601200021009F00F089FB3818BA
:101190004D4100902046641E0028DFDC019B009832
:1011A0002946324607B0F0BD03460B439B0703D0E8
:1011B00009E008C9121F08C0042AFAD203E00B781C
:1011C0000370401C491C521EF9D27047D2B201E094
:1011D0000270401C491EFBD270470022F6E710B592
:1011E00013460A4604461946FFF7F0FF204610BD95
:1011F00030B504460020034600E05B1C934203D256
:10120000E05CCD5C401BF8D030BDF8B502464A40EA
:10121000D40F42004B0052085B089A4202D20246A9
:10122000084611464A0023D0C30D4A00DDB2120E13
:10123000AD1A202D35DA49020126490AF6058A1928
:10124000002C00D0524220214F1B1146B9402A41A8
:101250001018C20D9A4221D0002C17D0012D08DCA5
:10126000DA05801AD20F8019D207DBB200F054FBE6
:10127000F8BDDA05801A012340001B06C01880184B
:101280005A428018CA0F1043490007E04908C207B4
:101290001143DA05801A80194008801800F034FBE9
:1012A000F8BD61000122511A001BF7E70122D207A5
:1012B0005140AAE70122D2075040A6E7024670B586
:1012C0004A40D30FDB0740002DD04A002AD0010E40
:1012D000140E000212020919400A520A8418E5018C
:1012E00004465443000A120A2E045043A41942191A
:1012F000200CC543AA18120C0125AD03521C52192B
:1013000012047F39240400D0521C104301D4400041
:10131000491EC2B20C06C0092018401C4008802A91
:1013200002D003E0002070BD40084000002900DA30
:101330000020184370BD70B502464A40D50F4000EA
:101340004A00ED0740085208002814D0002A12D0A5
:10135000C40DD30D41020120C0055202490A520AB0
:10136000E41A091812187D34914201D3641C00E07C
:101370004900002C01DA002070BD0023914201D306
:10138000891A0343400849000028F7D100290AD0F0
:10139000914202D10121C90705E0914201D2012108
:1013A00001E00121C943E005C018401900F0ACFA82
:1013B00070BD0000F0B507460846584087B0C00F22
:1013C000049048000E46590040084908BC1A88415C
:1013D00005D2384631461E4617460B46024658008F
:1013E000400810434DD0300D039040055900400D8A
:1013F000490D0590401A0290402873DA1803012124
:10140000000B09050843019004980092002806D0BB
:101410001146019A494200209041009101900298A2
:1014200040210A1A0199009800F03AFA05460C4644
:101430006B4607CB00F055FAC0197141039A0E0DA7
:101440000023D71756401A467A40164344D0049AD0
:10145000002A2DD0029A012A039A15DC1205C01A1F
:10146000914101263605001C7141D20F059ED2071D
:101470000093019202962A46234600F093FA07B0A1
:10148000F0BD38463146FAE71605234A0F46B21832
:10149000C01AB74101210905001C4F4100187F41C6
:1014A000114618187941E20F10436D19644113E099
:1014B000E2076D0815436408C2071443039A012626
:1014C0001205C01A91413605001C7141CE07400833
:1014D00030434908C01851412A46234600F055FAC6
:1014E000CDE7FFE7049801224000C117121A00233C
:1014F0008B4104983146C417381AA141EEE730B445
:101500000124E407634030BC54E730B40124E4070D
:10151000614030BC4EE700000000E0FFF0B51FB4B2
:1015200088B00B990998002448400999C00F4900D8
:1015300049080991C0070B990090490049080B918F
:1015400009990898A64608431CD00B990A980843A5
:1015500018D0099801244000420D4800410D099817
:1015600024050003000B204309900B980003000B97
:1015700020430B9050181C4940180022019014463B
:10158000104605E0002001460DB0F0BD032801DA49
:10159000034600E003239C46C11A0AAE0AE05F003E
:1015A00008ADED5B4F00F75B7D430027AA187C4137
:1015B000491C5B1E6145F2DD410004AB5A52210417
:1015C000120C0A43240C401C0828DFDB019802900F
:1015D0000099704601910090059B049A079906981E
:1015E00000F0E0F9D0E700000DFCFFFFF0B50C467D
:1015F0005C4085B0E40FE40703944C0000266408C7
:1016000059009446490802460296224321D0624678
:101610000A431ED06200570D4A000E032303550DE6
:10162000012402462C492405781B1B0B360B40185D
:1016300023432643614600901C46501AB44103D30D
:101640000098401C009002E0921800985B4100282E
:1016500003DA0020014605B0F0BD00200121090594
:101660000746864611E064461D46141BB54106D365
:101670006546521BB341744607430C43A646CD074B
:1016800040084908284392185B4105460D43EAD1BA
:101690001046184313D06046194650407140084325
:1016A00006D06046101AB34106D20122002306E09C
:1016B00000220123DB0702E00122D24353100098ED
:1016C00074460105381C6141029C039D0019694163
:1016D00000F05BF9BFE70000FD03000010B5002239
:1016E0009623114600F018F910BD00000EB5C21780
:1016F000C10F5040CA0740180021054B02930192C8
:1017000000910A460B4600F04DF903B000BD000001
:10171000330400000EB505490291002100910A46EC
:101720000B46019100F03EF903B000BD3304000008
:10173000C20F410040020123400ADB05D207090E17
:10174000C0187F2901DA00207047962903DC962310
:10175000591AC84001E096398840002AF4D0404226
:101760007047410040020122400AD205090E80184C
:101770007F2901DA00207047962903DC9622511A4E
:10178000C840704796398840704700004A000903F6
:101790000123090B1B051943094B10B5520D9A4241
:1017A00001DA002010BD064B34339A4203DC9A1A4A
:1017B00000F086F810BD03495118884010BD0000A4
:1017C000FF030000CDFBFFFFC20FD207400040081F
:1017D0000BD0C10D0723DB01C91840020905400ADF
:1017E0001143C2084007114370470020014670476B
:1017F00010B5002904DB0124E40740428C41214656
:10180000002B04DB1C460123DB075242A3418B4221
:1018100000D1824210BD000010B5002904DB012474
:10182000E40740428C412146002B04DB1C46012387
:10183000DB075242A341994200D1904210BD000003
:10184000CB0FDB07490010B5490802460A4307D011
:101850000A0D07240903E401090B121B002A01DC0D
:10186000002010BDC900440F0C43C100E018D20590
:10187000801800F049F810BD0122D207002800DBD3
:10188000101A002900DB511A814270470122D20749
:10189000002800DB101A002900DB511A884270472B
:1018A00010B5202A04DB0146203A9140002010BDEB
:1018B000914020239C1A0346E3401943904010BDF9
:1018C00010B5202A04DB0846203AD040002110BD84
:1018D0000B46D340D0402024A21A91400843194619
:1018E00010BD10B5202A06DBCB170846203A104160
:1018F000C1170B4306E00B461341D0402024A21A27
:1019000091400843194610BD002904DA401C4900E3
:1019100001D140084000704770B40024050C05D187
:101920001024000402D1002921D01124050E01D178
:1019300000020834050F01D10001241D850F01D1DB
:101940008000A41C002801DB4000641C002908D092
:1019500020252E1B0D46F540A14000D00121294332
:10196000084301061B1B000ADB1D02D5002070BCCA
:101970007047DB05181880180029F8DA401C490068
:10198000F5D170BC40084000704710B5002B08DA54
:101990000024401C614192185B411A4301D1400868
:1019A000400010BDF0B51FB482B005460C0003D056
:1019B000084609F08DFE02E009F08AFE203002465A
:1019C000009021462846FFF76BFF049B059A0446CA
:1019D0000F4618431143084314D0184610431BD038
:1019E000009840210A1A18460599FFF769FF054635
:1019F0000E46009A05990498FFF752FF084305D058
:101A0000012004E02046394607B0F0BD0020C11790
:101A100005430E432C43374300990E986305401A43
:101A20007905E40A00220C43FD0A0A3002D50020A1
:101A30000146E9E70105101969410C9C0D9D00194B
:101A40006941FFF7A2FFDFE770B54B005B08034376
:101A50000BD04B005C0D002633466542B341D417D2
:101A6000AD1AA34102DB0020014670BD12053018FB
:101A7000514170BD064C0125064E05E0E36807CCD8
:101A80002B430C3C98471034B442F7D3FFF71CFBB0
:101A900070CA000890CA000870B504460D460026BA
:101AA0000D48844200D104E00C4A0DA11AA00AF0AE
:101AB00003F91E482840002802D1002D00D005E07F
:101AC0004922120106A11AA00AF0F6F82E12206887
:101AD000B043206070BD0000000802408F04000089
:101AE0002E2E5C6669726D776172655C6E3332674B
:101AF0003033305F7374645F7065726970685F64FF
:101B000072697665725C7372635C6E333267303310
:101B1000305F6164632E630049734164634D6F6499
:101B2000756C652841444378290000001FF80000C7
:101B30004973416463496E74284144435F495429A1
:101B40000000000070B505460C46002D08D10021AC
:101B5000FF20013004F02CFD204604F0CBFC06E011
:101B60000121204604F024FD002004F0C3FC70BDD8
:101B700070B505460C4600261548854200D104E0A4
:101B8000144A15A122A00AF097F8002C0ED00120CB
:101B9000000384420AD08000844207D0032040031F
:101BA000844203D007200003844200D105E0094AA3
:101BB000521C09A11BA00AF07FF8AE680721090397
:101BC000304688430646304620430646AE6070BD28
:101BD00000080240B20200002E2E5C6669726D772A
:101BE0006172655C6E3332673033305F7374645F8B
:101BF0007065726970685F6472697665725C737231
:101C0000635C6E3332673033305F6164632E630030
:101C100049734164634D6F64756C65284144437832
:101C2000290000004973416463457874496E6A5421
:101C3000726967284144435F45787465726E616CD0
:101C400054726967496E6A6563436F6E7629000056
:101C5000FFB583B007460C461D46002600200290C3
:101C600000BF5748874200D105E06722D20055A146
:101C700062A00AF021F8002C1DD0012C1BD0022CF0
:101C800019D0032C17D0042C15D0052C13D0062CFA
:101C900011D0072C0FD0082C0DD0092C0BD00A2CFA
:101CA00009D00B2C07D00C2C05D00D2C03D00E2CFA
:101CB00001D00F2C00D104E0554A42A155A009F0F3
:101CC000FBFF0598012803DB0598042800DC05E0EC
:101CD0004F4A521C3BA156A009F0EEFF002D1DD02B
:101CE000012D1BD0022D19D0032D17D0042D15D096
:101CF000052D13D0062D11D0072D0FD0082D0DD096
:101D0000092D0BD00A2D09D00B2D07D00C2D05D095
:101D10000D2D03D00E2D01D00F2D00D105E03C4A32
:101D2000921C28A148A009F0C7FF072C14DD3E69CA
:101D30002046083881000F208840029031460298E2
:101D400081430E462046083881002846884002908C
:101D5000029806433E610FE07E69A1000F20884093
:101D600002903146029881430E46A10028468840E1
:101D70000290029806437E61FE6B0320000530400E
:101D8000000D01900598C11C0198401C081A8100A3
:101D900041180F20884002903146029881430E4638
:101DA0000598C11C0198401C081A81004118204662
:101DB0008840029002980643FE6307B0F0BD000021
:101DC000000802402E2E5C6669726D776172655C58
:101DD0006E3332673033305F7374645F706572697D
:101DE00070685F6472697665725C7372635C6E338F
:101DF00032673033305F6164632E6300497341643E
:101E0000634D6F64756C6528414443782900000078
:101E10003903000049734164634368616E6E656C09
:101E2000284144435F4368616E6E656C2900000081
:101E30004973416463496E6A52616E6B56616C69A5
:101E4000642852616E6B2900497341646353616D6C
:101E5000706C6554696D65284144435F53616D70D2
:101E60006C6554696D652900F8B504460D46002679
:101E700000270F48844200D105E06F22D2000DA157
:101E80001AA009F019FF012D02DB042D00DC04E08B
:101E90001B4A08A11BA009F00FFFE66B03210905EF
:101EA0003046884306466F1E38050643E663F8BD94
:101EB000000802402E2E5C6669726D776172655C67
:101EC0006E3332673033305F7374645F706572698C
:101ED00070685F6472697665725C7372635C6E339E
:101EE00032673033305F6164632E6300497341644D
:101EF000634D6F64756C6528414443782900000088
:101F0000790300004973416463496E6A4C656E56FB
:101F1000616C6964284C656E677468290000000074
:101F2000F8B504460D46164600271648844200D1EF
:101F300005E0FF22533214A121A009F0BDFE002EBE
:101F400001D0012E00D105E0FF2254320EA121A0C4
:101F500009F0B2FE26482840002802D1002D00D00A
:101F600005E0FF22553208A122A009F0A5FEEFB23C
:101F7000002E03D060683843606002E06068B843B8
:101F80006060F8BD000802402E2E5C6669726D77B5
:101F90006172655C6E3332673033305F7374645FD7
:101FA0007065726970685F6472697665725C73727D
:101FB000635C6E3332673033305F6164632E63007D
:101FC00049734164634D6F64756C6528414443787F
:101FD0002900000049535F46554E4354494F4E4136
:101FE0004C5F535441544528436D64290000000060
:101FF0001FF800004973416463496E7428414443EB
:102000005F49542900000000FFB581B007460C4627
:102010001D460026002000906B48874200D105E055
:10202000FF22F73269A177A009F046FE002C1DD0EF
:10203000012C1BD0022C19D0032C17D0042C15D046
:10204000052C13D0062C11D0072C0FD0082C0DD046
:10205000092C0BD00A2C09D00B2C07D00C2C05D046
:102060000D2C03D00E2C01D00F2C00D105E0FF2247
:10207000F83256A168A009F01FFE0398012803DB7F
:102080000398102800DC05E0FF22F9324FA169A077
:1020900009F012FE002D1DD0012D1BD0022D19D0EC
:1020A000032D17D0042D15D0052D13D0062D11D0DA
:1020B000072D0FD0082D0DD0092D0BD00A2D09D0DA
:1020C0000B2D07D00C2D05D00D2D03D00E2D01D0DA
:1020D0000F2D00D105E0FF22FA323CA15BA009F0F0
:1020E000EBFD072C14DD3E692046083881000F20E7
:1020F000884000903146009881430E4620460838BB
:102100008100284688400090009806433E610FE019
:102110007E69A1000F2088400090314600988143DD
:102120000E46A100284688400090009806437E6134
:102130000398072816DABE6B0398401E81004118E9
:102140000F20884000903146009881430E46039846
:10215000401E8100411820468840009000980643A8
:10216000BE632FE003980D2816DA7E6B0398C01F1C
:10217000810041180F20884000903146009881432B
:102180000E460398C01F81004118204688400090E9
:10219000009806437E6315E03E6B03980D3881007E
:1021A00041180F20884000903146009881430E4628
:1021B00003980D388100411820468840009000980F
:1021C00006433E6305B0F0BD000802402E2E5C665B
:1021D00069726D776172655C6E3332673033305F80
:1021E0007374645F7065726970685F647269766544
:1021F000725C7372635C6E3332673033305F61647C
:10220000632E630049734164634D6F64756C652888
:102210004144437829000000497341646343686185
:102220006E6E656C284144435F4368616E6E656CF9
:1022300029000000497341646352657152616E6BFD
:1022400056616C69642852616E6B29004973416460
:102250006353616D706C6554696D65284144435FDB
:1022600053616D706C6554696D6529000E4A128862
:10227000002A03D10C4A5288002A05D00A4A128843
:10228000094B5B88D21A0280084A1288002A03D1BF
:10229000064A5288002A05D0044A1288034B5B88FC
:1022A000D21A0A80704700006E00002072000020E1
:1022B00070B504460D461048844200D105E0FF2267
:1022C0001F320EA11BA009F0F7FC002D01D0012D3B
:1022D00000D105E0FF22203208A11BA009F0ECFC90
:1022E000002D04D0A06801210843A06003E0A0688D
:1022F00040084000A06070BD000802402E2E5C66C1
:1023000069726D776172655C6E3332673033305F4E
:102310007374645F7065726970685F647269766512
:10232000725C7372635C6E3332673033305F61644A
:10233000632E630049734164634D6F64756C652857
:10234000414443782900000049535F46554E4354A9
:10235000494F4E414C5F535441544528436D6429C5
:102360000000000070B504460D461148844200D1BB
:1023700004E0104A10A11EA009F09EFC002D01D01F
:10238000012D00D105E00B4A521C0BA11DA009F044
:1023900093FC002D05D0606801218902084360602C
:1023A00004E06068012189028843606070BD00001C
:1023B00000080240790200002E2E5C6669726D777B
:1023C0006172655C6E3332673033305F7374645FA3
:1023D0007065726970685F6472697665725C737249
:1023E000635C6E3332673033305F6164632E630049
:1023F00049734164634D6F64756C6528414443784B
:102400002900000049535F46554E4354494F4E4101
:102410004C5F535441544528436D6429000000002B
:1024200070B504460D461148844200D105E0FF22F4
:1024300036320FA11CA009F03FFC002D01D0012D68
:1024400000D105E0FF22373209A11DA009F034FCBC
:10245000002D05D0A068FF2101310843A06004E0F1
:10246000A068FF2101318843A06070BD00080240D0
:102470002E2E5C6669726D776172655C6E333267B1
:102480003033305F7374645F7065726970685F6465
:1024900072697665725C7372635C6E333267303377
:1024A000305F6164632E63004973416463446D610E
:1024B0004D6F64756C652841444378290000000025
:1024C00049535F46554E4354494F4E414C5F535418
:1024D00041544528436D64290000000070B504464E
:1024E0000D461148844200D104E0104A10A11EA0FC
:1024F00009F0E2FB002D01D0012D00D105E00B4ACF
:10250000521C0BA11DA009F0D7FB002D05D0A0681F
:102510000121C9030843A06004E0A0680121C903A8
:102520008843A06070BD000000080240C90200009E
:102530002E2E5C6669726D776172655C6E333267F0
:102540003033305F7374645F7065726970685F64A4
:1025500072697665725C7372635C6E3332673033B6
:10256000305F6164632E630049734164634D6F643F
:10257000756C6528414443782900000049535F4643
:10258000554E4354494F4E414C5F53544154452896
:10259000436D64290000000070B504460D461148E3
:1025A000844200D104E0104A10A11EA009F084FB6F
:1025B000002D01D0012D00D105E00B4A521C0BA1CA
:1025C0001DA009F079FB002D05D0606801210903E9
:1025D0000843606004E0606801210903884360608B
:1025E00070BD000000080240920200002E2E5C66C2
:1025F00069726D776172655C6E3332673033305F5C
:102600007374645F7065726970685F64726976651F
:10261000725C7372635C6E3332673033305F616457
:10262000632E630049734164634D6F64756C652864
:10263000414443782900000049535F46554E4354B6
:10264000494F4E414C5F535441544528436D6429D2
:102650000000000070B504460D461148844200D1C8
:1026600005E0FF226D320FA11CA009F025FB002D13
:1026700001D0012D00D105E0FF226E3209A11CA07E
:1026800009F01AFB002D05D0A068052109050843B3
:10269000A06004E0A068052109058843A06070BD22
:1026A000000802402E2E5C6669726D776172655C6F
:1026B0006E3332673033305F7374645F7065726994
:1026C00070685F6472697665725C7372635C6E33A6
:1026D00032673033305F6164632E63004973416455
:1026E000634D6F64756C6528414443782900000090
:1026F00049535F46554E4354494F4E414C5F5354E6
:1027000041544528436D64290000000070B505461A
:102710000C4600261348854200D104E0124A13A15A
:1027200020A009F0C9FA012C0BD0022C09D0042CEE
:1027300007D0082C05D0102C03D0202C01D0402C21
:1027400000D105E0084A521C08A11BA009F0B4FA08
:10275000686D2040002801D0012600E000263046A8
:1027600070BD000000080240CC0400002E2E5C6604
:1027700069726D776172655C6E3332673033305FDA
:102780007374645F7065726970685F64726976659E
:10279000725C7372635C6E3332673033305F6164D6
:1027A000632E630049734164634D6F64756C6528E3
:1027B00041444378290000004973416463476574CC
:1027C000466C6167284144435F464C41475F4E4534
:1027D0005729000038B505460C46002000901148E6
:1027E000854200D104E0104A10A11EA009F064FA4D
:1027F000182C05D01C2C03D0202C01D0242C00D167
:1028000005E0094A521C09A11BA009F055FA0095E0
:10281000204628300099081800900098006880B27F
:1028200038BD000000080240B20300002E2E5C6696
:1028300069726D776172655C6E3332673033305F19
:102840007374645F7065726970685F6472697665DD
:10285000725C7372635C6E3332673033305F616415
:10286000632E630049734164634D6F64756C652822
:1028700041444378290000004973416463496E6A0A
:102880004368284144435F496E6A656374656443E5
:1028900068616E6E656C290010B5044605480068D5
:1028A00000190449086008464068401C486009F067
:1028B00091FF10BD7800002030B59FB00025AE48D4
:1028C000007800287ED00020AB490870AB4A918D7B
:1028D0002A466B1CDDB29200A84B985801F053FABF
:1028E0000446204601F069FAA5490882A34A918D61
:1028F0002A466B1CDDB29200A04B985801F043FAB7
:102900000446204601F059FA9D4948829D48807D41
:10291000C006400F00283FD0984A918D2A466B1C74
:10292000DDB29200954B985801F02DFA04462046EE
:1029300001F043FA92498882904A918D2A466B1C95
:10294000DDB292008D4B985801F01DFA04462046E6
:1029500001F033FA8A49C882884A918D2A466B1C55
:10296000DDB29200854B985801F00DFA04462046DE
:1029700001F023FA82490883804A918D2A466B1C14
:10298000DDB292007D4B985801F0FDF904462046D7
:1029900001F013FA7A4948837948008A7849088017
:1029A0000846408A4880681CC5B2681CC5B2734A94
:1029B000918D2A466B1CDDB29200704B985801F045
:1029C000E2F900E0C4E06E4948816C4A918D2A46E4
:1029D0006B1CDDB29200694B985801F0D4F968493C
:1029E0008881664A918D2A466B1CDDB29200634B4A
:1029F000985801F0C8F96249C8810846008A6249BE
:102A0000C96948430446200C0A2101F0BCF981B28F
:102A10005E48C181C089322802DA00215B48C18149
:102A20005748408A5849896948430446240C584805
:102A3000844201D2554884815248807DC006400FAF
:102A400000284DD04E48808A4F49C9694843044602
:102A5000200C0A2101F097F981B24C484182408A4A
:102A6000322802DA0021494841824548C08A464955
:102A7000896948430446240C4548844201D24348AE
:102A800004823F48008B4049C96948430446200CF2
:102A90000A2101F078F981B23C48C182C08A32280B
:102AA00002DA00213948C1823548408B36498969AC
:102AB00048430446240C3648844201D23348848279
:102AC0003248801C811E74221D911E905039684628
:102AD000FEF76AFB2D4860380FC809F01DFE05E0BF
:102AE0002A48C189418081892038018427492039B9
:102AF000088C08F0DDFC2249891D881EFFF7B6FB13
:102B00007422224950396846FEF74EFB1F48603850
:102B10000FC802F041F81A4BDA8899881B4B203B0A
:102B2000188C08F011FC194A5188203A108C08F0D2
:102B300005FD134A1188508808F0F0FA104A91896F
:102B4000508906F00BFF0E4A9189508909F07CFEEE
:102B50001048007800280CD000200E4908700E4A5A
:102B60005168106801F00FF905490881088905F0DE
:102B7000A3F91FB030BD00006C00002070050020DC
:102B800024050020A8000020E800002068040020A0
:102B9000102700006D00002080000020F8B50025FF
:102BA000002407200090634E6348807A00287CD080
:102BB00000276BE000246148807DC006400F00289C
:102BC00023D00B2000905E4E29194900705A2146EF
:102BD00000F03EFA601CC4B229194900705A21461F
:102BE00000F036FA601CC4B229194900705A214617
:102BF00000F02EFA601CC4B229194900705A21460F
:102C000000F026FA601CC4B200E04A4E29194900BF
:102C1000705A214600F01CFA601CC4B22919490000
:102C2000705A214600F014FA601CC4B229194900F8
:102C3000705A214600F070FA601CC4B2291949008C
:102C4000705A214600F018FA601CC4B229194900D4
:102C5000705A214600F0F0F9601CC4B229194900ED
:102C6000705A214600F0E8F9601CC4B229194900E5
:102C7000705A214600F0E0F900982818C5B2314892
:102C8000808D401C2F498885781CC7B2102F91DB9E
:102C90002D4801F001FE00280DD0302229492B4893
:102CA000FEF782FA3021274800E015E0FEF795FA9A
:102CB000012027490870274801F0EEFD002837D091
:102CC0002548264A06CA06C0244800210160416002
:102CD0000120234908702BE01848807DC006400F72
:102CE000002803D00B200090154E02E0114E072063
:102CF000009000270FE0104840686900715A4018A2
:102D00000D49486000982818C5B208460089401C43
:102D10000881781CC7B2102FEDDB0748008901211C
:102D20004903884204DB0F48034908800120887268
:102D3000F8BD000028010020A0050020A800002008
:102D400008020020400500208800002070050020B7
:102D50006C0000208A000020800000207800002005
:102D60006D000020FD07000010B51C211348FEF780
:102D700034FA13480021016041608160302111481C
:102D8000FEF72BFA8C211048FEF727FA00210F4896
:102D900001F04CFD012264210C4801F0C1FD08F056
:102DA00065FA06F057FE0021094801F03FFD0122B7
:102DB0001421074801F0B4FD10BD000024050020D7
:102DC000A005002040050020AC0500208800002060
:102DD0008A00002010B518210648FFF7FBFC0446C6
:102DE0002046FFF759FD0921C9010248FEF754FEAC
:102DF00010BD000000080240F8B506460C4600254C
:102E000000273F48864200D104E0D5223DA14BA0D7
:102E100008F052FF2078002802D02078012800D145
:102E200004E0D62237A14AA008F046FF60780028C7
:102E300002D06078012800D104E0D72231A150A04F
:102E400008F03AFF6068002816D001214904606844
:102E5000884211D04900606888420DD049006068FE
:102E6000884209D0032189046068884204D0072180
:102E700049046068884200D104E0D82221A14DA015
:102E800008F01AFFA068002804D00121C902A06838
:102E9000884200D104E0D9221AA151A008F00CFF09
:102EA000207B012803DB207B102800DC04E0DA22F1
:102EB00014A155A008F000FF7568FF2101312846D4
:102EC000884305462078000205437560B568594877
:102ED00005406168A06808436178490008430543DC
:102EE000B560356B0F210905284688430546207BD0
:102EF000401EC0B20743380505433563F8BD0000E6
:102F0000000802402E2E5C6669726D776172655C06
:102F10006E3332673033305F7374645F706572692B
:102F200070685F6472697665725C7372635C6E333D
:102F300032673033305F6164632E630049734164EC
:102F4000634D6F64756C6528414443782900000027
:102F500049535F46554E4354494F4E414C5F53547D
:102F6000415445284144435F496E697453747275F6
:102F700063742D3E4D756C74694368456E2900007D
:102F800049535F46554E4354494F4E414C5F53544D
:102F9000415445284144435F496E697453747275C6
:102FA00063742D3E436F6E74696E7565436F6E7604
:102FB000456E2900497341646345787454726967AA
:102FC000284144435F496E69745374727563742D6C
:102FD0003E4578745472696753656C656374290063
:102FE0004973416463446174416C69676E2841446C
:102FF000435F496E69745374727563742D3E446106
:1030000074416C69676E290049734164635365714B
:103010004C656E56616C6964284144435F496E6932
:10302000745374727563742D3E4368734E756D628C
:1030300065722900FDF7F1FF10B58A00034B9A581D
:1030400012188B00014CE25010BD0000400500201A
:1030500030B5074B1B88C31A1AB28B00054CE458D5
:1030600013465343E3188C00024D2B5130BD000032
:10307000A005002040050020F8B504460D46264670
:10308000A80022490958304670430818A9001F4A71
:1030900050501F48807A8007C00F002834D01C4849
:1030A000807A0007C00F00282ED11948C088202838
:1030B0000ADA1748C288C088401C83B21448C3800B
:1030C00052003E38865219E01148807A0821884320
:1030D00008300F49887200210D48C1803E3808F041
:1030E0004CFD0C490090684600880880684640887E
:1030F0004880422106483E38FEF76FF80448807A3F
:103100000221884302498872F8BD00004005002072
:103110002C06002072000020F8B504460D46264615
:10312000A80022490958304670430818A9001F4AD0
:1031300050501F48807AC007C00F002835D01C4867
:10314000807A4007C00F00282FD119488088202896
:103150000BDA174882888088401C83B21448838029
:103160005000134A803A165219E01148807A04211F
:103170008843001D0E49887200210D4881808038E7
:1031800008F02FFD0B4900906846008808806846CB
:1031900040884880422106488038FEF71EF80448DF
:1031A000807A4008400002498872F8BD400500203E
:1031B0002C0600206E00002070B506460C46002547
:1031C000002E01D0012E00D105E02922120141A1DB
:1031D0004FA008F071FD002E3CD1002C1FD0012C17
:1031E0001DD0022C1BD0032C19D0042C17D0052C79
:1031F00015D0062C13D0072C11D0082C0FD0092C79
:103200000DD00A2C0BD00B2C09D00C2C07D00D2C78
:1032100005D00E2C03D00F2C01D0112C00D104E0CE
:10322000424A2CA142A008F047FD49480568010127
:10323000284688430546112C02D10846054306E07E
:103240000F21C903284688430546E003054340484B
:1032500005603EE0012E3CD1002C1FD0012C1DD07A
:10326000022C1BD0032C19D0042C17D0052C15D000
:10327000062C13D0072C11D0082C0FD0092C0DD000
:103280000A2C0BD00B2C09D00C2C07D00D2C05D000
:103290000E2C03D00F2C01D0102C00D105E0234AB6
:1032A0001A320CA12BA008F007FD29480568C100BF
:1032B000284688430546102C02D10846054306E0FF
:1032C0000F21C902284688430546E00205432048ED
:1032D000056070BD2E2E5C6669726D776172655CEB
:1032E0006E3332673033305F7374645F7065726958
:1032F00070685F6472697665725C7372635C6E336A
:1033000032673033305F6770696F2E6300000000F2
:1033100049535F4146494F5F4144435F45545228FA
:103320004144434554525479706529009502000088
:1033300049535F4146494F5F4144435F45545249B9
:10334000284144435472696752656D6170290000D9
:103350000000014049535F4146494F5F4144435F8C
:1033600045545252284144435472696752656D6115
:10337000702900003EB506226946702008F0BCFDA9
:1033800000282CD16846007880210840002822D1EE
:10339000684640780103684680780001091868464D
:1033A000C07800110D186846C0780007010B684608
:1033B000007900020918684640790C187D20C00089
:1033C0006843000D0D4988807D2000016043000D99
:1033D000FF38F538086000200849887102E00420B1
:1033E0000649887103220649702008F039FE00283A
:1033F00002D00320014988713EBD00003400002046
:10340000E3C9000810B50020C0430F490860002040
:1034100088808871C87103220C49702008F020FE52
:1034200000280AD103220A49702008F019FE00285A
:1034300006D003200449887102E002200249887105
:103440000148807910BD000034000020E0C9000868
:10345000E3C9000810B50649022000F0D9F9002898
:1034600005D0FFF79BFB0249012000F003F810BDD7
:103470000000024070B504460D46200F00070028EA
:1034800003D007482040002802D1002C00D005E0DE
:10349000FF22FF3203A111A008F00EFC6C6070BD8A
:1034A0000000F0EF2E2E5C6669726D776172655CCC
:1034B0006E3332673033305F7374645F7065726986
:1034C00070685F6472697665725C7372635C6E3398
:1034D00032673033305F646D612E630049535F445F
:1034E0004D415F434C525F494E5428444D415F4922
:1034F0005429000070B504460D4616461E48844205
:103500000FD01D48143084420BD01B482830844211
:1035100007D019483C30844203D0174850308442C9
:1035200000D105E0FF221A3214A122A008F0C4FB4A
:103530000E2128468843002802D1002D00D005E046
:10354000FF221B320DA122A008F0B6FB002E01D0F5
:10355000012E00D105E0FF221C3208A123A008F0B3
:10356000ABFB002E03D020682843206002E02068D7
:10357000A843206070BD0000080002402E2E5C664B
:1035800069726D776172655C6E3332673033305FBC
:103590007374645F7065726970685F647269766580
:1035A000725C7372635C6E3332673033305F646DAC
:1035B000612E630049535F444D415F414C4C5F5065
:1035C000455249504828444D41436878290000003D
:1035D00049535F444D415F434F4E4649475F494E13
:1035E0005428444D41496E742900000049535F46F8
:1035F000554E4354494F4E414C5F53544154452816
:10360000436D64290000000010B50446324884422E
:103610000FD03148143084420BD02F4828308442D8
:1036200007D02D483C30844203D02B485030844290
:1036300000D104E06D2229A136A008F03DFB2068EE
:103640003B4908402060002020606060A060E0608E
:103650002148844208D12048083840680F21084397
:103660001D490839486035E01B481430844208D1B0
:10367000194808384068F02108431749083948605C
:1036800028E015482830844209D11348083840689A
:103690000F21090208431049083948601AE00E4812
:1036A0003C30844209D10C48083840680F21090396
:1036B00008430949083948600CE007485030844203
:1036C00008D10548083840680F2109040843024919
:1036D0000839486010BD0000080002402E2E5C66CC
:1036E00069726D776172655C6E3332673033305F5B
:1036F0007374645F7065726970685F64726976651F
:10370000725C7372635C6E3332673033305F646D4A
:10371000612E630049535F444D415F414C4C5F5003
:10372000455249504828444D4143687829000000DB
:10373000FEFF000070B504460D46174884420FD0C6
:103740001548143084420BD013482830844207D0E7
:1037500011483C30844203D00F485030844200D19D
:1037600004E0FB220DA11BA008F0A6FA002D01D059
:10377000012D00D104E0FC2208A11DA008F09CFA54
:10378000002D04D0206801210843206003E0206858
:103790001E490840206070BD080002402E2E5C6665
:1037A00069726D776172655C6E3332673033305F9A
:1037B0007374645F7065726970685F64726976655E
:1037C000725C7372635C6E3332673033305F646D8A
:1037D000612E630049535F444D415F414C4C5F5043
:1037E000455249504828444D41436878290000001B
:1037F00049535F46554E4354494F4E414C5F5354D5
:1038000041544528436D642900000000FEFF00007C
:10381000F8B504460D4600260027012C32D0022CB4
:1038200030D0042C2ED0082C2CD0102C2AD0202CB8
:1038300028D0402C26D0802C24D0FF200130844278
:1038400020D0400084421DD0400084421AD0400065
:10385000844217D04000844214D04000844211D0EA
:10386000400084420ED0400084420BD0400084428D
:1038700008D04000844205D04000844202D040007D
:10388000844200D105E0FF22CB3207A114A008F04A
:1038900013FA2F6838462040002801D0012600E0A6
:1038A00000263046F8BD00002E2E5C6669726D77EA
:1038B0006172655C6E3332673033305F7374645F9E
:1038C0007065726970685F6472697665725C737244
:1038D000635C6E3332673033305F646D612E63003A
:1038E00049535F444D415F4745545F495428444D17
:1038F000415F49542900000070B505460C4600267A
:103900005D4885420FD05C48143085420BD05A4840
:103910002830854207D058483C30854203D056486D
:103920005030854200D104E0A52254A161A008F0E6
:10393000C3F9A068102802D0A068002800D104E0D4
:10394000A6224EA162A008F0B7F9E068002805D0D1
:1039500001210904E068884200D204E0A72247A1BF
:1039600065A008F0A9F92069402802D02069002844
:1039700000D104E0A82241A169A008F09DF9606986
:10398000802802D06069002800D104E0A9223BA170
:1039900070A008F091F9A069002808D0FF2101313A
:1039A000A069884203D04900A069884200D104E0A0
:1039B000AA2232A174A008F07FF9E069002808D09B
:1039C00001218902E069884203D04900E069884208
:1039D00000D104E0AB2229A179A008F06DF9206A9A
:1039E000202802D0206A002800D104E0AC2223A1C4
:1039F00080A008F061F903210903606A88420BD0B6
:103A000001214903606A884206D04910606A8842F1
:103A100002D0606A002800D104E0AD2217A180A086
:103A200008F04AF901218903A06A884202D0A06AFD
:103A3000002800D104E0AE2210A184A008F03CF9D7
:103A40002E688D480640216AA06808432169084312
:103A500061690843A1690843E1690843616A084351
:103A6000A16A084306432E60E06868602068A86089
:103A70006068E86070BD0000080002402E2E5C66A1
:103A800069726D776172655C6E3332673033305FB7
:103A90007374645F7065726970685F64726976657B
:103AA000725C7372635C6E3332673033305F646DA7
:103AB000612E630049535F444D415F414C4C5F5060
:103AC000455249504828444D414368782900000038
:103AD00049535F444D415F44495228444D415F4939
:103AE0006E6974506172616D2D3E446972656374D4
:103AF000696F6E290000000049535F444D415F42E9
:103B000055465F53495A4528444D415F496E697493
:103B1000506172616D2D3E42756653697A65290068
:103B200049535F444D415F5045524950485F494EAB
:103B3000435F535441544528444D415F496E697475
:103B4000506172616D2D3E506572697068496E6397
:103B50002900000049535F444D415F4D454D5F4989
:103B60004E435F535441544528444D415F496E696B
:103B700074506172616D2D3E444D415F4D656D6FB6
:103B80007279496E6329000049535F444D415F508B
:103B900045524950485F444154415F53495A452872
:103BA000444D415F496E6974506172616D2D3E50A4
:103BB00065726970684461746153697A65290000AF
:103BC00049535F444D415F4D454D4F52595F44410C
:103BD00054415F53495A4528444D415F496E6974C9
:103BE000506172616D2D3E4D656D44617461536924
:103BF0007A65290049535F444D415F4D4F44452844
:103C0000444D415F496E6974506172616D2D3E4350
:103C1000697263756C61724D6F6465290000000004
:103C200049535F444D415F5052494F5249545928BE
:103C3000444D415F496E6974506172616D2D3E5013
:103C400072696F72697479290000000049535F44FA
:103C50004D415F4D324D5F535441544528444D41D1
:103C60005F496E6974506172616D2D3E4D656D32B4
:103C70004D656D29000000000F80FFFFF8B5044678
:103C80000F4615461E46002C41D0012C3FD0022C79
:103C90003DD0032C3BD0042C39D0052C37D0062C3A
:103CA00035D00D2C33D00E2C31D00F2C2FD0102C22
:103CB0002DD0132C2BD0142C29D0152C27D0162C1A
:103CC00025D0172C23D0182C21D0192C1FD01A2C1A
:103CD0001DD01B2C1BD01C2C19D01D2C17D01E2C1A
:103CE00015D01F2C13D0202C11D0212C0FD0232C19
:103CF0000DD0222C0BD0252C09D0262C07D0272C18
:103D000005D0282C03D0292C01D02E2C00D104E082
:103D1000054A06A113A007F0CFFF002E01D02C61A9
:103D200001E000202861F8BD360200002E2E5C66FE
:103D300069726D776172655C6E3332673033305F04
:103D40007374645F7065726970685F6472697665C8
:103D5000725C7372635C6E3332673033305F646DF4
:103D6000612E630049535F444D415F52454D4150C0
:103D700028444D415F52454D4150290000E0401E0E
:103D80000028FCD1704770B505460C46284601F066
:103D90002FFF204601F032FF012001F035FF00BF68
:103DA000082001F0CDFE0028FAD001F01BFF0646E6
:103DB000002001F029FF304670BD70B50446204652
:103DC00003F03EFE012003F041FE00BF082003F097
:103DD000EBFD0028FAD003F02DFE0546002003F08D
:103DE00035FE284670BD10B50121802002F0EEFF9F
:103DF0000121202002F0EAFF10BD000070B5054649
:103E00000E4600240CE0295D074806F059FB00BF70
:103E10008021054806F01EF80028F9D0601C84B205
:103E2000B442F0DB70BD00000044004010B5002437
:103E300037E020011C494018C07B00282FD020010A
:103E40004018807B00282AD020010858401C2101FE
:103E5000154A505021018918496888421FD3002013
:103E60002101505001202101891848732001114679
:103E700040188068002808D0210189188868804788
:103E800000202101084A891848732001064940187A
:103E9000007B002803D12101034A89188873601C24
:103EA000C4B2052CC5DB10BD8C03002000B58FB05B
:103EB00002F036FF02F044F901F058FA8C48FFF79F
:103EC000A3FB8C48807DC006400F002807D18A489C
:103ED000019070200390072008A9087606E0874823
:103EE0000190B02003900B2008A908768448009028
:103EF00000200290049080200590400006908000F1
:103F00000790202008900002099000200A9069463E
:103F10007748FFF7F1FC0123754A754908390020FD
:103F2000FFF7ACFE012202217148FFF7E3FA0121FD
:103F30006F48FFF7FFFB012108A8017341730720B9
:103F400040040C9000200D900BA96D485038FEF7EE
:103F500053FF00216A485038FEF704FA00216848F0
:103F60005038FEF719FB012165485038FDF77CFFFA
:103F700003230122072162485038FDF769FE03211F
:103F800049035F485038FDF7F3FD01215C48503884
:103F9000FEF7A4FA01220921C90159485038FDF75A
:103FA000BFFF5448807DC006400F002831D1012357
:103FB0001A46022152485038FEF726F80123022201
:103FC00019464F485038FEF71FF8012303220921F4
:103FD0004B485038FEF718F8012304220A214848BC
:103FE0005038FEF711F801230522042144485038C7
:103FF000FEF70AF801230622052141485038FEF752
:1040000003F80123072203213D485038FDF7FCFF48
:104010004CE001231A46082139485038FDF7F4FFD7
:1040200001230222194636485038FDF7EDFF0123DF
:104030000322022132485038FDF7E6FF0123042213
:1040400000212F485038FDF7DFFF0123052206210C
:104050002B485038FDF7D8FF012306220B212848B2
:104060005038FDF7D1FF0123072209212448503899
:10407000FDF7CAFF012308220A2121485038FDF725
:10408000C3FF0123092204211D485038FDF7BCFF5E
:1040900001230A2205211A485038FDF7B5FF0123F4
:1040A0000B22032116485038FDF7AEFF01211448BA
:1040B0005038FEF7B5F9012111485038FEF7F8F8ED
:1040C00000BF20210E485038FEF720FB0028F8D012
:1040D00000BF40210A485038FEF718FB0028F8D1ED
:1040E000012107485038FEF7B5FA0FB000BD0000B7
:1040F00008000240A800002028010020080200203B
:104100005008024010B500F03BFA00F053F800F000
:10411000B3FAFFF7CBFE00F035FB00F0D7FBFFF75B
:1041200062FEFFF76FF910BD014608687047000096
:1041300010B508220849094800F05CF80648808854
:104140000749884202D000F00FF803E00548024A10
:1041500006CA06C010BD00000400002000F80008D8
:1041600020AA00000C00002010B5002003490860C0
:104170000348888000F006F810BD0000040000200D
:1041800020AA000010B5082207490848FDF730F8BA
:10419000002808D00548044A06CA06C00822024979
:1041A000034800F099F910BD040000200C00002025
:1041B00000F8000810B520220A490B4800F01AF850
:1041C0000848C08B0949884202D000F0A7F804E0F3
:1041D000202204490648FCF7E7FF00F03FF8FFF70C
:1041E000A7FF10BDA800002000FA000812AA0000D6
:1041F000C8000020F0B585B005460E461746B81039
:10420000019001988000381AC0B20090002400206C
:1042100002900EE02819FFF787FF0390301904225F
:1042200003A9FCF7C1FF201D84B20298401C80B294
:104230000290019902988842ECDB009800280ADD80
:10424000029989004819FFF76FFF0390301903A9FD
:10425000009AFCF7A9FF05B0F0BD000010B52022C0
:1042600008490948FFF7C6FF064800880749884201
:1042700002D000F00FF804E0202202490448FCF7C5
:1042800093FF10BDE800002000FC000888AA000091
:104290000801002010B50B480B4948800B48888066
:1042A000002088710A4808610A4848610A48C860C5
:1042B0000A4888610A48C8610A48088000F014F872
:1042C00010BD00004B270000E800002069D400006A
:1042D00027792300C2EE180040420F0027AB0200EE
:1042E0007CE9030088AA000010B52022084909488B
:1042F000FCF77EFF002809D0202205490548FCF77D
:1043000053FF20220249044800F0E6F810BD0000E7
:10431000E80000200801002000FC000810B55B4800
:104320005B4908605B48486000208860C8600846B8
:10433000407B40084000401C48730846407B0221F7
:104340008843801C524948730846407B04218843B7
:10435000001D4F4948730846407B40218843403048
:104360004B4948730846407B802188438030484948
:1043700048730846807B40084000401C887308460C
:10438000807B02218843801C414988730846807BDA
:1043900004218843001D3E4988730846807B202104
:1043A000884320303A4988730846807B40218843FF
:1043B0004030374988730846807B802188438030AD
:1043C000334988730846C07B40084000401CC873CE
:1043D0000846C07B02218843801C2D49C8730846CB
:1043E000C07B04218843001D2949C8730846C07B4F
:1043F0000821884308302649C8730846C07B10212D
:10440000884310302249C8730846C07B2021884366
:1044100020301F49C8730846C07B80218843803004
:104420001B49C87387211A4841756E2101756421A3
:10443000C174502181744B21417432201449087495
:104440000846807DE0218843114988750846807DB3
:104450001C2188430E4988750846807D02218843C7
:10446000801C0B4988750846807D4008400088758F
:10447000094907480183094941832021818308486C
:104480000349C88300F00EF810BD000027AB0200FE
:10449000A80000207CE90300581B000098080000D9
:1044A00012AA000010B5202208490948FCF7A0FE16
:1044B000002809D0202205490548FCF775FE202276
:1044C0000249044800F008F810BD0000A8000020D0
:1044D000C800002000FA0008F0B585B005460E4679
:1044E0001746B810019001988000381AC0B20090A9
:1044F00000F01CFF680A40020390039800F0D8FD0A
:10450000042804D000F05AFE002005B0F0BD0024BD
:104510000020029014E03119042203A8FCF744FEA5
:104520002819039900F054FE042803D000F046FE39
:104530000020EAE7201D84B20298401C80B202905D
:10454000019902988842E6DB009800280EDD3119B7
:1045500003A8009AFCF728FE2819039900F038FEFA
:10456000042803D000F02AFE0020CEE700F026FE4B
:104570000120CAE70148808B7047000020340140C9
:1045800000B587B002F0E8FB01A801F075F9002042
:104590000190012002900020049005900920000362
:1045A000019001A9214800F001FF2148019001A9D3
:1045B000204800F0FBFE01A801F05EF9FF20013069
:1045C000019000200290049001A9184800F0EEFE2E
:1045D00001200003019001A9164800F0E7FE032026
:1045E0004003019001A9144800F0E0FE01A801F089
:1045F00043F90320019011200290002004900590BF
:1046000001A90E4800F0D2FE00224021074801F027
:10461000E1F900220121C903044801F0DBF900227D
:104620002021044801F0D6F907B000BD0008014080
:10463000E0600000000C014000100140001C01403F
:1046400010B50C4909680B4A1289885C01F032FDEB
:1046500008480089401C80B206490881C988884200
:1046600007DB0020034908810021FF20033001F00F
:104670000DFC10BD8003002010B504220849094834
:10468000FCF792FD07488078F02808D0F020054913
:1046900088702E20087004220148FFF71DFF10BD0E
:1046A00000FE00082D00002050200A4988700422D6
:1046B0000948FFF711FF0948FFF760FB00BFBFF390
:1046C0004F8F07480749C860BFF34F8F00BF00BF37
:1046D000FEE700002D00002000FE0008A08601007B
:1046E0000400FA0500ED00E0FEB504460027002CAA
:1046F00004D100211F4805F0EDF833E0FF2C04DB66
:104700001D491C4805F0E6F82CE0062C13DB332C81
:1047100011DC2046FCF7FEFF0546184A184BFCF753
:10472000FDFE01910090FDF731F887B2394611483E
:1047300005F0D0F816E0332C14DD3F2C12DC642198
:10474000614308461921FCF7EBFC0521C90140181B
:1047500087B209489738874200DA07463946054844
:1047600005F0B8F803482030808B02492031888357
:10477000FEBD000000340140E9030000ABAAAAAA74
:10478000AAAA304000B58FB002F0E0FA09A801F003
:1047900073F80120C002099002200A9001200D90B8
:1047A00005200E9009A91F4800F000FE7D21C900D8
:1047B000684601832F21818200214183C18205A99E
:1047C000194804F0F5FE6021684681800121C1800E
:1047D00000218181418101A9134804F029FC0821AD
:1047E000114804F069FA7021684681800121C18076
:1047F000002181813221418101A90B4804F0BEFDD5
:104800007021094804F0F0FF0121074804F064F921
:104810000121054804F0BAFA0121034804F022FB03
:104820000FB000BD000C01400034014030B502461D
:104830000B4617480078052801DB002030BD002119
:1048400021E00801134C0019C07B002819D1117018
:104850000120507008010019002404604460846045
:10486000C46001200C010B4D6419E07308012C4653
:104870000019836006480078401C054C2070012018
:10488000DCE7481CC1B20529DBDB0020D6E70000CD
:104890002C0000208C03002010B501460878000190
:1048A000094BC018C07B00280BD008780001C01845
:1048B000427B00200B781B01034C1B1958731046D8
:1048C00010BD0020FCE700008C0300201FB502F0A3
:1048D00049FA01F048FC7D21C900684681802F21FA
:1048E00001800021C180418069460A4804F060FED1
:1048F00001221146074804F05BF90121054804F044
:1049000045FA50210448FCF768FC04480021017076
:104910001FBD0000001000408C0300202C00002070
:1049200030B50346187800010F4C0019C07B0028F1
:1049300018D000201C7824010B4D28511878000154
:104940002C460019416018780001001902730020FC
:104950001C7824016419607301201C7824016419F7
:10496000A07330BD0020FCE78C03002010B50022AE
:104970000849094805F030F908480068002804D0C3
:104980000749C88805490968884700200449C88044
:10499000887210BD26060000003801401800002073
:1049A0006803002010B50F4800680E4A1289815C28
:1049B0000D4805F085FD0B480089401C80B209496F
:1049C0000881C98888420CDB002006490881002242
:1049D0000649054805F000F901220549024805F09D
:1049E000FBF810BD680300200038014027070000D5
:1049F000260600001FB504461849A068086018493B
:104A0000E06808606088002805DD16496068086075
:104A10006088888003E0002012490860888005F0E3
:104A20003FF805F033F805F01DF8208800900021CC
:104A300068468180C180018181810C214181694664
:104A4000094805F069FB01220849074805F0C4F848
:104A50000121054805F096F91FBD00001C0000204B
:104A600020000020740300200044004025050000C1
:104A70000148807A704700007403002070B5054635
:104A80000C461F48808800281EDD1D48006800284D
:104A90001AD01B488088A04202DA1948808800E0BA
:104AA00020461749C880224608682946FCF77CFB47
:104AB00000201349088101221249134805F08CF89F
:104AC00001200F4988721AE000260CE0A95D0E480B
:104AD00005F0F6FC00BF80210B4805F0BBF900286B
:104AE000F9D0701C86B2A642F0DB084800680028A6
:104AF00004D00349C88805490968884700BF70BDCC
:104B0000740300202707000000440040200000201C
:104B100010B500220849094805F05EF80848006809
:104B2000002804D00749C88805490968884700203B
:104B30000449C880887210BD260600000044004069
:104B4000200000207403002010B50F4800680E4AB2
:104B50001289815C0D4805F0B3FC0B480089401CAC
:104B600080B209490881C98888420CDB00200649C7
:104B7000088100220649054805F02EF80122054962
:104B8000024805F029F810BD7403002000440040DD
:104B900027070000260600000FB470B55148407F7B
:104BA00001287DD15048807DC006400F00281BD0D1
:104BB0001CA880891CA9C98948434C4908601CA8C5
:104BC000008A1CA9498A484348490968401847494E
:104BD00008601CA8808A1CA9C98A484343490968FF
:104BE00040184249086006E010A8008E1CA94988B8
:104BF00048433E4908603D488368C1680068002218
:104C000018185141394AD160906011468C68C968C2
:104C1000374A00232046FCF797FA34494860096870
:104C2000344A88185100FFF7AEF881B22D48203081
:104C300081802E4841682B48403881662E48836821
:104C4000C0682A4909680022591850412A4A9160CF
:104C5000D0601046264A00238468C1682046FCF7CD
:104C600073FA2549486025480088401C80B22349D2
:104C700008804B21C90088422FDD1F48406800286A
:104C80002BD000201D4908801D4800681A4949683A
:104C900040181B4908600020174948600A4600E098
:104CA00004E09060D060FFF76DFA16E000210D4837
:104CB000203081801048406800280ED010480068DD
:104CC0000D49496840180E49086000200A494860AB
:104CD0000A469060D060FFF755FA70BC08BC04B07B
:104CE0001847000048040020A800002038060020D3
:104CF00080EE360088130000480600209000002057
:104D00000400002003480021016041608160C1600F
:104D1000704700003806002010B5044604480078AB
:104D2000032803D1204600F063F810BD0120FCE702
:104D30008C00002004480078032802D10348007842
:104D400070470020FCE700008C0000208D00002050
:104D500010B513480078032800D110BD1148007821
:104D600001281AD110484078012802D0022812D117
:104D700008E0012000F03CF8002802D000210A4899
:104D8000417009E0002000F033F8002802D0002133
:104D90000548417000E000BF00BF00BFDDE7000034
:104DA0008C0000208D000020840400200C48807DB1
:104DB0008007C00F002803D101200A49087002E0D3
:104DC0000220084908700648807D8007C00F00282F
:104DD00002D1022104484170002004490870704744
:104DE000A80000208D000020840400208C000020FA
:104DF00010B504464F48007801287DD1002C46D0DC
:104E0000082003F0B3FB002801DB002010BD0121C6
:104E10000903494800F03EFD002812D147490870B7
:104E20004749087001214748017700228903424819
:104E300000F0D0FD012251033F4800F0CBFD0120DE
:104E4000E4E7012291033C4800F0C4FD0122510334
:104E5000394800F0BFFD39480078401CC0B23749DE
:104E60000870322861DB002008703549087008207E
:104E700002F050FF0022012189032F4800F0AAFD13
:104E8000012251032C4800F0A5FD0120BEE70121BD
:104E90000903294800F0FEFC00281CD028480078AF
:104EA000401CC0B226490870142814DD6420087024
:104EB00000202249087000212248017700220121A8
:104EC00089031D4800F086FD012251031A4800F0B5
:104ED00081FD01209AE7002201218903164800F094
:104EE00079FD002201214903134800F073FD1348A6
:104EF0000078401CC0B200E019E010490870322868
:104F000013DB002008700E490870082002F002FF31
:104F1000002201218903084800F05CFD01225103B1
:104F2000054800F057FD012070E700206EE70120E2
:104F30006CE700008D000020000C01408E00002076
:104F40008F000020680400200149087070470000AD
:104F50008C0000207047000010B503F0A7FB00286C
:104F60002AD0002429480068401C284908602849A4
:104F7000884214D900BF0BE02649085D03F09CFB72
:104F8000002803D12349085D03F032FB601CC4B242
:104F900003F08CFBA042EFDC00201C4908601E4897
:104FA0008078002801D1FFF7D5FF03F07FFB0028B0
:104FB00001D103F0A9FC02E000201449086003F0CD
:104FC00081FB002820D011484068401C0F494860F0
:104FD000FF21F531884216D900240DE00D49163124
:104FE000085D03F069FB002804D10A491631085D09
:104FF00003F024FB601CC4B203F064FBA042EDDCB0
:1050000000200249486000BF10BD0000E8070020F2
:10501000504600000D0400208C04002010B504460A
:1050200034202040002805D0342120468843002821
:1050300000D104E0054A06A114A006F03DFE1B487D
:10504000C06820431949C86010BD00005C0400001E
:105050002E2E5C6669726D776172655C6E333267A5
:105060003033305F7374645F7065726970685F6459
:1050700072697665725C7372635C6E33326730336B
:10508000305F666C6173682E6300000049535F46B1
:105090004C4153485F434C4541525F464C41472881
:1050A000464C4153485F464C41472900002002408E
:1050B00070B5044607250120C006844203D3164874
:1050C000844200D204E0D22214A123A006F0F4FD11
:1050D0003420FFF7A3FF0B20000400F033F905464E
:1050E000042D17D124480069022108432249086190
:1050F000084644610069402108431F4908610B20AC
:10510000000400F01FF905461B4800691B490840D0
:1051100019490861284670BDFFFF00082E2E5C6605
:1051200069726D776172655C6E3332673033305F00
:105130007374645F7065726970685F6472697665C4
:10514000725C7372635C6E3332673033305F666CEF
:105150006173682E6300000049535F464C41534819
:105160005F4144445245535328506167655F416431
:10517000647265737329000000200240FD3F000047
:1051800007200D49C968C907C90F002901D00120AE
:1051900010E00949C96804221140002901D0022009
:1051A00008E00549C96810221140002901D00320F8
:1051B00000E004207047000000200240034800691E
:1051C0008021084301490861704700000020024027
:1051D000F8B504460D460726002000900120C006C1
:1051E000844203D31248844200D204E0114A12A13F
:1051F00020A006F061FD3420FFF710FF01204003DE
:1052000000F0A0F80646042E10D1214800690121C3
:1052100008431F4908612560F00200F093F8064634
:105220001B4800691B490840194908613046F8BD10
:10523000FFFF0008170200002E2E5C6669726D7772
:105240006172655C6E3332673033305F7374645FF4
:105250007065726970685F6472697665725C73729A
:10526000635C6E3332673033305F666C6173682E17
:105270006300000049535F464C4153485F4144443A
:1052800052455353284164647265737329000000CA
:1052900000200240FE3F000070B504460025002CAF
:1052A00003D0012C01D0022C00D104E08E2207A1F2
:1052B00015A006F001FD1C48056838200540284669
:1052C000204305461848056070BD00002E2E5C6620
:1052D00069726D776172655C6E3332673033305F4F
:1052E0007374645F7065726970685F647269766513
:1052F000725C7372635C6E3332673033305F666C3E
:105300006173682E6300000049535F464C41534867
:105310005F4C4154454E435928464C4153485F4CDD
:105320006174656E637929000020024002480349D8
:1053300048600348486070472301674500200240E9
:10534000AB89EFCD10B503460724FFF719FF0446DC
:1053500003E0FFF715FF04465B1E012C01D1002B73
:10536000F7D1002B00D10624204610BD00B587B030
:1053700001A800F081FAFF2001900320029001A90A
:10538000074800F013F80748019001A9064800F00B
:105390000DF811210020FDF70FFF07B000BD000040
:1053A0000008014007040000000C0140F8B5064663
:1053B0000C460027002000900025C748864208D0F0
:1053C000C648864205D0C648864202D0C5488642B5
:1053D00000D104E0E022C4A1D2A006F06DFCBE48DA
:1053E000864208D1208880B2002804D0D4492068A1
:1053F0000843884224D0B948864208D1208880B228
:10540000002804D0CE4920680843884218D0B44808
:10541000864209D10721490320680840002803D0AB
:105420002068084388420BD0AE48864209D1C72184
:1054300020680840002804D020680843C72800D10D
:1054400004E0E122A8A1BFA006F036FC60680028B5
:1054500026D06068012823D06068112820D06068B9
:1054600002281DD0606812281AD0C349606888429B
:1054700016D0C2496068884212D0C149606888422B
:105480000ED0C049606888420AD0BF49606888422F
:1054900006D0BE496068884202D06068032800D107
:1054A00004E0E32290A1BAA006F006FCA068002860
:1054B00005D0A068012802D0A068022800D104E02D
:1054C000E42289A1BDA006F0F7FBE068002802D025
:1054D000E068012800D104E0E52283A1C2A006F023
:1054E000EBFB2069002802D02069012800D104E0EC
:1054F000E6227DA1C7A006F0DFFBE6E00121B9406E
:10550000206808400090009800287DD0606802283C
:1055100002D06068122829D160690F2800D804E001
:10552000F42271A1C7A006F0C7FB0820384000286C
:105530000ED0756A7807C10E0F2088402946814336
:105540000D467907C90E60698840054375620DE014
:10555000356A7807C10E0F208840294681430D46E1
:105560007907C90E60698840054335626068012883
:1055700008D06068112805D06068022802D06068F1
:1055800012280BD175680120B840294681430D4689
:105590002079C006C00FB8400543756035687900B2
:1055A00003208840294681430D4620798007800FDB
:1055B0007900884005433560F5687900032088400C
:1055C000294681430D467900A06888400543F5606F
:1055D000B5680120B840294681430D46E068B840CF
:1055E0000543B560F56A0120B840294681430D4660
:1055F0002069B8400543F562012109076068084049
:10560000884261D19A4800E05EE0B90889004558B7
:10561000B807010F0F208840294681430D462E48C8
:10562000864201D100200AE02C48864201D10120A7
:1056300005E02B48864201D1022000E00520B90791
:10564000090F884005438A48B908890045508948B0
:1056500005682946009881430D46012109046068C8
:105660000840884201D1009805438248056045689A
:105670002946009881430D4601214904606808408D
:10568000884201D1009805437A48456085682946DB
:10569000009881430D460121090560680840884251
:1056A00001D10098054373488560C5682946009874
:1056B00081430D460121490560680840884201D1B7
:1056C000009805436B48C5607F1C2068F84000289F
:1056D00000D013E7F8BD000000080140000C0140B5
:1056E00000100140001C01402E2E5C6669726D772F
:1056F0006172655C6E3332673033305F7374645F40
:105700007065726970685F6472697665725C7372E5
:10571000635C6E3332673033305F6770696F2E635E
:105720000000000049535F4750494F5F414C4C5FB8
:10573000504552495048284750494F7829000000A9
:10574000FFFF000049535F4750494F5F50494E5F8C
:10575000415641494C41424C45284750494F782CCD
:10576000204750494F5F496E697453747275637472
:105770002D3E50696E29000000001110000021101C
:105780000000311000201310000012100000321031
:1057900049535F4750494F5F4D4F44452847504953
:1057A0004F5F496E69745374727563742D3E475030
:1057B000494F5F4D6F6465290000000049535F4702
:1057C00050494F5F50554C4C284750494F5F496EE8
:1057D00069745374727563742D3E4750494F5F501E
:1057E000756C6C290000000049535F4750494F5FBA
:1057F0005350454544284750494F5F496E6974539B
:1058000074727563742D3E4750494F5F53706565E0
:105810006429000049535F4750494F5F4355525236
:10582000454E54284750494F5F496E69745374720E
:105830007563742D3E4750494F5F43757272656EB4
:105840007429000049535F4750494F5F414628473C
:1058500050494F5F496E69745374727563742D3E7D
:105860004750494F5F416C7465726E6174652900E1
:105870000800014000040140054901600F21416119
:105880000021416081600121C160002101617047F8
:10589000FFFF000070B504460D46002629488442EB
:1058A00008D02948844205D02848844202D028489C
:1058B000844200D105E0FF22783226A134A006F010
:1058C000FBF92048844207D1A8B2002804D0374809
:1058D00028433649884224D01B48844207D1A8B2C5
:1058E000002804D0314828433049884219D017484D
:1058F00084420BD1072040032840002806D007200F
:10590000400328430721490388420AD010488442B3
:1059100008D1C7202840002804D0C7202843C72822
:1059200000D105E0FF2279320AA121A006F0C4F9D6
:1059300020692840002801D0012600E000263046DA
:1059400070BD000000080140000C01400010014043
:10595000001C01402E2E5C6669726D776172655C79
:105960006E3332673033305F7374645F70657269B1
:1059700070685F6472697665725C7372635C6E33C3
:1059800032673033305F6770696F2E63000000004C
:1059900049535F4750494F5F414C4C5F5045524916
:1059A0005048284750494F7829000000FFFF000069
:1059B00049535F4750494F5F50494E5F41564149F7
:1059C0004C41424C45284750494F782C2050696E35
:1059D0002900000070B504460D4616462D48844245
:1059E00008D02D48844205D02C48844202D02C484F
:1059F000844200D105E0FF22E5322AA138A006F05A
:105A00005BF92448844207D1A8B2002804D03B485F
:105A100028433A49884224D01F48844207D1A8B27B
:105A2000002804D0354828433449884219D01B48FF
:105A300084420BD1072040032840002806D00720CD
:105A4000400328430721490388420AD0144884426E
:105A500008D1C7202840002804D0C7202843C728E1
:105A600000D105E0FF22E6320EA125A006F024F9C0
:105A7000002E01D0012E00D105E0FF22E73209A15E
:105A800028A006F019F9002E01D0A56100E0A5625A
:105A900070BD000000080140000C014000100140F2
:105AA000001C01402E2E5C6669726D776172655C28
:105AB0006E3332673033305F7374645F7065726960
:105AC00070685F6472697665725C7372635C6E3372
:105AD00032673033305F6770696F2E6300000000FB
:105AE00049535F4750494F5F414C4C5F50455249C5
:105AF0005048284750494F7829000000FFFF000018
:105B000049535F4750494F5F50494E5F41564149A5
:105B10004C41424C45284750494F782C2050696EE3
:105B20002900000049535F4750494F5F4249545F85
:105B30004F50455241544528426974436D642900D1
:105B400070B504460025042C05D0082C03D0102C79
:105B500001D0012C00D104E099220CA11AA006F07A
:105B6000ABF8012C08D11E4840692040002801D024
:105B7000012509E0002507E01948006820400028B9
:105B800001D0012500E00025284670BD2E2E5C6660
:105B900069726D776172655C6E3332673033305F86
:105BA0007374645F7065726970685F64726976654A
:105BB000725C7372635C6E3332673033305F68647B
:105BC00069762E630000000049535F484449565FE0
:105BD000464C414728484449565F464C41472900B6
:105BE000008002400148C068704700000080024009
:105BF0000149486070470000008002400149886008
:105C00007047000000800240002806D0064909685D
:105C100003221143044A116005E003490968890819
:105C20008900014A116070470080024000BFFEE712
:105C300010B503484078032801D102F02BFA10BDBB
:105C40008C04002010B503484078022801D002F0EF
:105C500035FA10BD8C04002010B50F484078042898
:105C600018D102F017FA0C480078062803D00A4829
:105C70000078072803D10920074908700AE0FFF7D8
:105C800059F8012803D10A200349087002E00020D6
:105C90000149087010BD00008C04002010B50548B3
:105CA0004078042804D102F0F5F909200149087070
:105CB00010BD00008C04002010B50D48407803286A
:105CC00015D100220121C9030A48FFF783FE0022F3
:105CD00020210948FFF77EFE0849887FFEF704FD72
:105CE0000820034908700B2104482038017710BDB3
:105CF0008C04002000080140000C014068040020D2
:105D000010B50D484078042814D1002241030B48F7
:105D1000FFF760FE002220210948FFF75BFE0949DA
:105D2000887FFEF7E1FC0720034908700B21054836
:105D30002038017710BD00008C04002000080140CD
:105D4000000C01406804002005484078022805D175
:105D500005200349087005210248017770470000BB
:105D60008C0400204804002007484078032803D012
:105D700005484078022805D1042003490870052110
:105D800002480177704700008C040020480400207E
:105D900010B505484078032804D102F07BF90920AA
:105DA0000149087010BD00008C04002010B50121CD
:105DB000064803F0BFF8002807D00121034802F08D
:105DC00027FEFEF733F805F041FF10BD001000403C
:105DD00070B504460025012C16D0FF200330844204
:105DE00012D0400084420FD06120C00084420BD00A
:105DF00041200001844207D029204001844203D081
:105E000019208001844200D104E0074A07A116A0AE
:105E100005F052FF19208001844201D1802500E065
:105E2000E5B21948058070BD120200002E2E5C6696
:105E300069726D776172655C6E3332673033305FE3
:105E40007374645F7065726970685F6472697665A7
:105E5000725C7372635C6E3332673033305F6C70C8
:105E6000756172742E63000049535F4C5055415266
:105E7000545F434C525F494E54284C505541525444
:105E80005F494E54290000000048004070B50446A8
:105E90000D46012C16D0FF200330844212D0400062
:105EA00084420FD06120C00084420BD04120000109
:105EB000844207D029204001844203D01920800168
:105EC000844200D105E0FF2206320FA11DA005F09B
:105ED000F3FE002D01D0012D00D105E0FF22073295
:105EE00009A120A005F0E8FE002D06D02448007985
:105EF000E1B208432249087104E021480079A04337
:105F00001F49087170BD00002E2E5C6669726D77A6
:105F10006172655C6E3332673033305F7374645F17
:105F20007065726970685F6472697665725C7372BD
:105F3000635C6E3332673033305F6C7075617274DE
:105F40002E63000049535F4C50554152545F434605
:105F5000475F494E54284C50554152545F494E5466
:105F60002900000049535F46554E4354494F4E4166
:105F70004C5F535441544528436D64290000000090
:105F800000480040F8B50446002600250027012CF3
:105F900016D0FF200330844212D0400084420FD03C
:105FA0006120C00084420BD041200001844207D010
:105FB00029204001844203D019208001844200D16D
:105FC00005E0FF22E6320FA11DA005F075FE60047A
:105FD000450E0120A84005462148007905401920BA
:105FE0008001844201D1802600E0E6B21C4800888E
:105FF0000640002D03D0002E01D0012700E000272D
:106000003846F8BD2E2E5C6669726D776172655CEC
:106010006E3332673033305F7374645F70657269FA
:1060200070685F6472697665725C7372635C6E330C
:1060300032673033305F6C70756172742E630000AC
:1060400049535F4C50554152545F4745545F494E48
:1060500054284C50554152545F494E542900000079
:106060000048004010B529204001FFF78BFF0028B1
:106070000BD000F019F804460A480068002803D045
:10608000204608490968884700BFFF200330FFF712
:1060900079FF002805D0FEF7D3FAFF200330FFF781
:1060A00097FE10BD240000200148007C70470000CE
:1060B0000048004010B50446FF2C00DC05E0FF223C
:1060C000833203A111A005F0F7FD16490C7410BD31
:1060D0002E2E5C6669726D776172655C6E33326715
:1060E0003033305F7374645F7065726970685F64C9
:1060F00072697665725C7372635C6E3332673033DB
:10610000305F6C70756172742E63000049535F4C90
:1061100050554152545F44415441284461746129AF
:106120000000000000480040704708B5052168469F
:106130000170002141700121817000F01FF808BD3D
:1061400008B515216846017001214170817000F089
:1061500015F80A2168460170032141700121817000
:1061600000F00CF808BD08B5142168460170022142
:1061700041700121817000F001F808BD10B504469E
:10618000A078002802D0A078012800D104E0642281
:1061900015A122A005F090FD6078042800DA04E043
:1061A000652211A12CA005F087FD61780020205602
:1061B00000F072F8A078002809D000202056C2060E
:1061C000D20E01219140334A116000BF0AE0002045
:1061D0002056C206D20E012191402E4A8032116013
:1061E00000BF00BF10BD00002E2E5C6669726D7787
:1061F0006172655C6E3332673033305F7374645F35
:106200007065726970685F6472697665725C7372DA
:10621000635C6D6973632E630000000049535F4641
:10622000554E4354494F4E414C5F535441544528B9
:106230004E5649435F496E69745374727563742D89
:106240003E4E5649435F4952514368616E6E656CDC
:10625000436D64290000000049535F4E5649435F77
:106260005052494F52495459284E5649435F496E3E
:1062700069745374727563742D3E4E5649435F4979
:1062800052514368616E6E656C5072696F726974C9
:106290007929000000E100E010B5002819DA1A4A57
:1062A00003071B0F083B9B089B00D2588307DC0E9B
:1062B000FF23A3409A438B071B0E8407E40EA340E1
:1062C0001A43114B0407240F083CA408A4001A51D8
:1062D00018E00E4A03231B02D21883089B00D258F1
:1062E0008307DC0EFF23A3409A438B071B0E840712
:1062F000E40EA3401A43054B032424021B1984080F
:10630000A4001A5110BD00001CED00E000E100E007
:106310007047000070B506460C460025002E03D0DD
:1063200001204004864200D105E0292212014DA13E
:106330005AA005F0C1FC002C7AD00120C002844292
:1063400076D04000844273D00320C00284426FD0D4
:106350000120400384426BD00520C002844267D0F4
:1063600003200003844263D00720C00284425FD030
:106370000120800384425BD00920C002844257D0B0
:1063800005200003844253D00B20C00284424FD02A
:106390000320400384424BD00D20C002844247D0EA
:1063A00007200003844243D00F20C00284423FD024
:1063B0000120C00384423BD01120C002844237D068
:1063C00009200003844233D01320C00284422FD01E
:1063D0000520400384422BD01520C002844227D0E0
:1063E0000B200003844223D01720C00284421FD018
:1063F0000320800384421BD01920C002844217D09E
:106400000D200003844213D01B20C00284420FD011
:106410000720400384420BD01D20C002844207D0D5
:106420000F200003844203D01F20C002844200D109
:1064300004E0244A0BA124A005F03EFC2C48C56AC8
:1064400001152846884305461F21C902284688436E
:10645000054628463043054628462043054624483D
:10646000C56270BD2E2E5C6669726D776172655C67
:106470006E3332673033305F7374645F7065726996
:1064800070685F6472697665725C7372635C6E33A8
:1064900032673033305F7263632E630049535F525B
:1064A00043435F414443314D434C4B535243285285
:1064B00043435F414443314D434C4B536F757263CB
:1064C000652900009102000049535F5243435F4138
:1064D0004443314D434C4B505245285243435F4156
:1064E0004443314D5072657363616C6572290000DD
:1064F0000010024070B504460025002C15D0012C78
:1065000013D0022C11D0032C0FD0042C0DD0052C4D
:106510000BD0062C09D0072C07D0082C05D0092C4D
:1065200003D009202040002800D005E0B9229200C5
:1065300006A114A005F0C0FB1C48C56A2D092D0159
:106540002846204305461948C56270BD2E2E5C665C
:1065500069726D776172655C6E3332673033305FBC
:106560007374645F7065726970685F647269766580
:10657000725C7372635C6E3332673033305F7263A8
:10658000632E630049535F5243435F414443484392
:106590004C4B505245285243435F41444348434C7F
:1065A0004B5072657363616C657229000010024084
:1065B00070B504460D460026FF200130844236D0D7
:1065C000FF201130844232D0FF20213084422ED06F
:1065D000FF20313084422AD0FF204130844226D02F
:1065E000FF205130844222D0FF20613084421ED0EF
:1065F000FF20713084421AD0FF208130844216D0AF
:10660000FF209130844212D0FF20A13084420ED06E
:10661000FF20B13084420AD0FF20C130844206D02E
:10662000FF20D1302040FF21C131884200D105E058
:10663000AF22920011A11FA005F03EFB002D01D05A
:10664000012D00D104E0264A0CA126A005F034FB60
:106650002B48C66AFF21F131304688430646002D9B
:1066600003D030462043064604E0FF210131304686
:10667000884306462248C66270BD00002E2E5C6626
:1066800069726D776172655C6E3332673033305F8B
:106690007374645F7065726970685F64726976654F
:1066A000725C7372635C6E3332673033305F726377
:1066B000632E630049535F5243435F414443504C50
:1066C0004C434C4B505245285243435F4144435046
:1066D0004C4C434C4B5072657363616C657229007E
:1066E000BD02000049535F46554E4354494F4E4149
:1066F0004C5F535441544528436D64290000000009
:106700000010024070B504460025002C0FD0802CEC
:106710000DD0902C0BD0A02C09D0B02C07D0C02CC1
:1067200005D0D02C03D0E02C01D0F02C00D104E017
:10673000084A09A116A005F0BFFA1D484568F021D6
:1067400028468843054628462043054618484560A4
:1067500070BD0000090200002E2E5C6669726D7724
:106760006172655C6E3332673033305F7374645FBF
:106770007065726970685F6472697665725C737265
:10678000635C6E3332673033305F7263632E630055
:1067900049535F5243435F535953434C4B5F444902
:1067A00056285243435F535953434C4B2900000032
:1067B0000010024010B50446002C06D00120000451
:1067C000844202D08000844200D104E0D82217A184
:1067D00024A005F071FA28480068012109048843C3
:1067E0002549086008460068012189048843224938
:1067F000086001200004201A04D003210904401A73
:1068000010D107E01C4800680121090408431A4917
:10681000086008E018480068052109040843164983
:10682000086000E000BF00BF10BD00002E2E5C66B7
:1068300069726D776172655C6E3332673033305FD9
:106840007374645F7065726970685F64726976659D
:10685000725C7372635C6E3332673033305F7263C5
:10686000632E630049535F5243435F4853452852A8
:1068700043435F48534529000010024010B50446C9
:10688000002C01D0012C00D105E0FF221A320BA10F
:1068900018A005F011FA1C480068400840001A4989
:1068A0000860012C06D108460068012108431649FA
:1068B000086000E000BF00BF10BD00002E2E5C6627
:1068C00069726D776172655C6E3332673033305F49
:1068D0007374645F7065726970685F64726976650D
:1068E000725C7372635C6E3332673033305F726335
:1068F000632E630049535F5243435F485349285214
:1069000043435F48534929000010024070B50446D4
:106910000025002C0FD00120800284420BD00520DE
:106920000002844207D003204002844203D00720A3
:106930000002844200D104E0084A09A116A005F033
:10694000BBF91C48456807210902284688430546CB
:106950002846204305461748456070BD22020000C6
:106960002E2E5C6669726D776172655C6E3332677C
:106970003033305F7374645F7065726970685F6430
:1069800072697665725C7372635C6E333267303342
:10699000305F7263632E630049535F5243435F4825
:1069A000434C4B5F444956285243435F48434C4B4A
:1069B000290000000010024070B504460025002C9C
:1069C0000FD00120800284420BD0052000028442B7
:1069D00007D003204002844203D0072000028442F3
:1069E00000D104E0084A09A116A005F065F91C4889
:1069F00045680721C902284688430546E00005434B
:106A00001748456070BD00003B0200002E2E5C66FA
:106A100069726D776172655C6E3332673033305FF7
:106A20007374645F7065726970685F6472697665BB
:106A3000725C7372635C6E3332673033305F7263E3
:106A4000632E630049535F5243435F48434C4B5F9F
:106A5000444956285243435F48434C4B29000000A9
:106A600000100240FEB506460C4617461D460020A3
:106A700001900090002E06D001200006864202D030
:106A80008010864200D105E0FF2286324EA15CA034
:106A900005F012F9002C3AD001200004844236D0CF
:106AA0004000844233D00320000484422FD00120D0
:106AB000800484422BD005200004844227D0032088
:106AC0004004844223D00720000484421FD00120C8
:106AD000C00484421BD009200004844217D0052042
